S01A0000496E7075747320616E64204F7574707574732E7372656310
S11300000C9455000C947D000C947D000C947D00A0
S11300100C947D000C947D000C947D000C947D0068
S11300200C947D000C947D000C947D000C947D0058
S11300300C947D000C947D000C94F1000C947D00D4
S11300400C947D000C947D000C9486040C94AD04F7
S11300500C947D000C947D000C947D000C947D0028
S11300600C947D000C947D0054657374696E672054
S1130070496E7075747320616E64204F7574707569
S113008074730A00494F20457870616E646572206C
S11300906E6F7420776F726B696E670A00001501CA
S11300A09303E20412061C01E90411241FBECFEFDE
S11300B0D8E0DEBFCDBF21E0A6E0B1E001C01D92D3
S11300C0AC34B207E1F711E0A0E0B1E0E6E9F3E116
S11300D002C005900D92A630B107D9F710E0C3E530
S11300E0D0E004C02197FE010E947408CF34D107E8
S11300F0C9F70E94D2050C94BE090C940000EF923B
S1130100FF920F931F93FC01768365835087478387
S11301103287218714870387F686E5861F910F911E
S1130120FF90EF900895EF92FF920F931F93019722
S1130130A1F46F3F7F4F89F40F2EF6E4EF2EF12CDC
S1130140F02D07E410E02EE630E045E450E064E4EE
S113015070E086E091E00E947F001F910F91FF9074
S1130160EF900895FC01848181111FC0F89481E00F
S11301708823D1F081E08483A581B6818C9182604B
S11301808C93A781B0858C9182608C93A185B28574
S11301908C9182608C93A585B6851C92A385B485C9
S11301A087EC8C9380E0E4CF78940895FC018FB7BA
S11301B0F89491E0992331F04081518162817381F7
S11301C090E0F8CF8FBFCB01BA0108950E94D6000A
S11301D028EE33E040E050E00E945208CA01B90121
S11301E008951F920F920FB60F9211248F939F932D
S11301F0AF93BF93EF93FF93E6E0F1E080819181A9
S1130200A281B3818C599F4FAF4FBF4F808391839D
S1130210A283B383FF91EF91BF91AF919F918F918F
S11302200F900FBE0F901F9018956FEF7FEF81E036
S113023090E00E94930008956FEF7FEF80E090E0DC
S11302400E9493000895CF92DF92EF92FF920F9352
S11302501F93FC0176836583508747833287218708
S113026014870387F686E586D08AC7861F910F9187
S1130270FF90EF90DF90CF900895CF92DF92EF92AE
S1130280FF920F931F930197C9F46F3F7F4FB1F40F
S11302900F2EFDEBCF2ED12CF02D0F2EFCEBEF2EDD
S11302A0F12CF02D0BEB10E02AEB30E049EB50E0A1
S11302B068EB70E085E191E00E9423011F910F91AA
S11302C0FF90EF90DF90CF900895CF93DF939A0142
S11302D0AB01FC01C581D68160E074E284EF90E05B
S11302E00E945208DA01C9014097A109B109B695E3
S11302F0A795979587958883DF91CF910895CF939C
S1130300DF93EC0187B18F7D87B987B18F7E87B981
S113031088B1806288B988B1806188B986E091E04B
S11303200E94B20040E85AE166E070E0CE010E940B
S11303306501ED85FE8584E48083DF91CF91089586
S1130340DC011D96ED91FC911E97108288B18F7D82
S113035088B988B18F7E88B908950F931F93CF937E
S1130360DF93EC01ED81FE810081E985FA8510813E
S11303700E94A001CE010E947F01ED81FE810083D5
S1130380E985FA851083DF91CF911F910F9108952C
S1130390CF92DF92EF92FF920F931F93CF93DF934D
S11303A0EC01F62EED85FE8584EA808386E091E0FB
S11303B00E94E600688379838A839B83ED85FE85AA
S11303C080818823BCF086E091E00E94E6000881E9
S11303D019812A813B81DC01CB01801B910BA20B8B
S11303E0B30B0397A105B10548F3CE010E94AD01FB
S11303F010E056C0FF0C86E091E00E94E60068839E
S113040079838A839B83EB85FC85F08286E091E087
S11304100E94E600088119812A813B81DC01CB011D
S1130420801B910BA20BB30B0397A105B10528F018
S1130430CE010E94AD0110E033C0ED85FE858081C0
S1130440182F187083FDDFCF84E8808386E091E065
S11304500E94E600688379838A839B83ED85FE8509
S113046080818823B4F086E091E00E94E600C88091
S1130470D980EA80FB80DC01CB018C199D09AE098F
S1130480BF090397A105B10548F3CE010E94AD0150
S113049007C0EF81F8858081887F883109F411E0F5
S11304A0812FDF91CF911F910F91FF90EF90DF90FB
S11304B0CF9008950F931F93CF93DF93EC01EB85B7
S11304C0FC856083ED85FE8584E8808386E091E089
S11304D00E94E600688379838A839B83ED85FE8589
S11304E080818823BCF086E091E00E94E6000881C8
S11304F019812A813B81DC01CB01801B910BA20B6A
S1130500B30B0397A105B10548F3CE010E94AD01D9
S113051080E001C081E0DF91CF911F910F91089598
S1130520CF92DF92EF92FF920F931F93CF93DF93BB
S1130530EC01F62E4C83ED85FE8584EA808386E00B
S113054091E00E94E600688379838A839B83ED852A
S1130550FE8580818823BCF086E091E00E94E6005D
S1130560088119812A813B81DC01CB01801B910B1D
S1130570A20BB30B0397A105B10548F3CE010E946A
S1130580AD0110E055C08F2D90E0880F991F282FE2
S11305902160F22E86E091E00E94E6006883798370
S11305A08A839B83F092BB0086E091E00E94E60080
S11305B0088119812A813B81DC01CB01801B910BCD
S11305C0A20BB30B0397A105B10528F0CE010E943D
S11305D0AD0110E02DC0ED85FE858081182F1870C7
S11305E083FDE0CF84E8808386E091E00E94E6000A
S11305F0688379838A839B83ED85FE858081882344
S1130600B4F086E091E00E94E600C880D980EA80D8
S1130610FB80DC01CB018C199D09AE09BF0903974E
S1130620A105B10548F3CE010E94AD0101C01C81B2
S1130630812FDF91CF911F910F91FF90EF90DF9069
S1130640CF9008950F931F93CF93DF93EC018C8188
S113065081508C83882329F0ED85FE8584EC80838A
S113066006C0811104C0ED85FE8584E8808386E0A0
S113067091E00E94E600688379838A839B83ED85F9
S1130680FE8580818823BCF086E091E00E94E6002C
S1130690088119812A813B81DC01CB01801B910BEC
S11306A0A20BB30B0397A105B10548F3CE010E9439
S11306B0AD0180E003C0EB85FC858081DF91CF91A3
S11306C01F910F9108950F931F93CF93DF93EC0124
S11306D0ED85FE8584E9808386E091E00E94E60052
S11306E0688379838A839B83ED85FE85808184FF7B
S11306F015C086E091E00E94E600088119812A81F4
S11307003B81DC01CB01801B910BA20BB30B039744
S1130710A105B10548F3CE010E94AD01DF91CF914F
S11307201F910F9108956FEF7FEF81E090E00E9499
S11307303D010895CF92DF92EF92FF920F931F93A2
S1130740FC0176876587508B4787328B218B148B0E
S1130750038BF68AE58AD08EC78A1F910F91FF908A
S1130760EF90DF90CF900895CF92DF92EF92FF92B7
S11307700F931F930197C9F46F3F7F4FB1F40F2E6E
S1130780F6ECCF2ED12CF02D0F2EF2ECEF2EF12C17
S1130790F02D01EC10E020EC30E044EC50E065EC8E
S11307A070E086E291E00E949A031F910F91FF90FE
S11307B0EF90DF90CF900895CF92DF92EF92FF9267
S11307C00F931F93CF93DF93FC01248521116AC0FB
S11307D0EC0181E08487CB01BA010E94330720E059
S11307E030E040E851E40E94E5079B01AC0160E081
S11307F074E284E79BE40E948B0620E030E040E84A
S11308005FE30E9419066B017C0120E030E0A9013E
S11308100E94860688236CF420E030E040E05FE329
S1130820C701B6010E9419060E94FD06062F172F64
S11308300CC020E030E040E05FE3C701B6010E9455
S11308401A060E94FD06062F172F61E070E080E073
S113085091E00E947A089983888361E070E080E0E7
S113086091E00E947A089F838E838FEF90E09B83B0
S11308708A8399878887F89481E0882391F0ED85AD
S1130880FE851083EF85F8890083ED89FE898081D8
S113089086608083EB89FC8980818869808380E01D
S11308A0ECCF7894DF91CF911F910F91FF90EF904F
S11308B0DF90CF900895FC0182858F5F9085892316
S11308C093858917E9F38287A681B7818285A80F6A
S11308D0B11D6C930388F489E02D8081806280834C
S11308E008950F931F93CF93DF938C01EB01FE01C7
S11308F08491882331F021966491C8010E945B049D
S1130900F6CFDF91CF911F910F9108951F920F920F
S11309100FB60F9211248F939F93AF93BF93EF93CE
S1130920FF93E6E2F1E0848192818F5F89238483DF
S1130930A081B1818481A80FB11D0788F08DE02DBD
S113094080818C93FF91EF91BF91AF919F918F9193
S11309500F900FBE0F901F9018951F920F920FB615
S11309600F9211242F938F939F93AF93BF93EF9381
S1130970FF93E6E2F1E092858385981781F0838501
S113098090858F5F89238387A789B08D868197811E
S11309902385FC01E20FF11D80818C9307C0E09157
S11309A03901F0913A0180818F7D8083FF91EF912D
S11309B0BF91AF919F918F912F910F900FBE0F9088
S11309C01F9018956FEF7FEF81E090E00E94B403D1
S11309D008956FEF7FEF80E090E00E94B4030895E4
S11309E0FC0171836083428308951F93CF93DF9347
S11309F0EC016A81888199810E94C801182F88813D
S1130A0099810E946303812FDF91CF911F910895F3
S1130A10CF93DF93EC01888199810E947F01CE01FD
S1130A200E94F504DF91CF910895CF93DF93EC01F9
S1130A3042E06A81888199810E9490028230D9F4CF
S1130A40888199810E94220390E09E838D8388810E
S1130A5099810E94220390E0982F88272D813E815E
S1130A60822B932B9E838D83888199810E946303BB
S1130A708D819E8102C080E090E0DF91CF91089546
S1130A80CF93DF93EC0178876F836A8188819981A2
S1130A900E94C8016F81888199810E945A026885E9
S1130AA0888199810E945A02888199810E946303F6
S1130AB0DF91CF910895603130F541110FC0FC01F1
S1130AC04381548121E030E0F90102C0EE0FFF1FA1
S1130AD06A95E2F7BF01642B752B10C0FC014381BA
S1130AE0548121E030E0F90102C0EE0FFF1F6A9546
S1130AF0E2F7BF016095709564237523FC0174834C
S1130B0063830E94400508950F931F93CF93603130
S1130B1070F4C62F8C010E941505F8018581968119
S1130B2002C096958795CA95E2F7817001C080E06E
S1130B30CF911F910F910895603130F5413079F4D0
S1130B40FC014781508521E030E0F90102C0EE0F3D
S1130B50FF1F6A95E2F7BF01642B752B10C0FC01DF
S1130B604781508521E030E0F90102C0EE0FFF1FFC
S1130B706A95E2F7BF016095709564237523FC01C3
S1130B80708767830E9440050895019751F46F3F71
S1130B907F4F39F440E265E171E08FE391E00E9418
S1130BA0F004089540E052EC61E070E086E291E0E8
S1130BB00E94DC038FE391E00E940805811107C0C5
S1130BC064E870E086E291E00E947104FFCF68E679
S1130BD070E086E291E00E947104C0E0C83078F4CD
S1130BE040E06C2F8FE391E00E945B0568E06C0F9E
S1130BF041E08FE391E00E945B05CF5FEFCFC0E05F
S1130C00C830E8F76C2F8FE391E00E9484058111CE
S1130C1081E068E06C0F482F8FE391E00E949C050F
S1130C20CF5FEECF6FEF7FEF81E090E00E94C505CC
S1130C3008955058BB27AA270E9431060C94AB078D
S1130C400E949D0738F00E94A40720F039F49F3FCA
S1130C5019F426F40C949A070EF4E095E7FB0C942F
S1130C609407E92F0E94BC0758F3BA176207730769
S1130C708407950720F079F4A6F50C94DE070EF4AA
S1130C80E0950B2EBA2FA02D0B01B90190010C0198
S1130C90CA01A0011124FF27591B99F0593F50F4B0
S1130CA0503E68F11A16F040A22F232F342F442708
S1130CB0585FF3CF469537952795A795F040539500
S1130CC0C9F77EF41F16BA0B620B730B840BBAF0D0
S1130CD09150A1F0FF0FBB1F661F771F881FC2F73B
S1130CE00EC0BA0F621F731F841F48F4879577954F
S1130CF06795B795F7959E3F08F0B0CF9395880F09
S1130D0008F09927EE0F9795879508950E9470072C
S1130D1008F481E008950E949F060C94AB070E949A
S1130D20A40758F00E949D0740F029F45F3F29F082
S1130D300C94940751110C94DF070C949A070E94A9
S1130D40BC0768F39923B1F3552391F3951B550B15
S1130D50BB27AA2762177307840738F09F5F5F4F8A
S1130D60220F331F441FAA1FA9F335D00E2E3AF0C9
S1130D70E0E832D091505040E695001CCAF72BD0E1
S1130D80FE2F29D0660F771F881FBB1F2617370732
S1130D904807AB07B0E809F0BB0B802DBF01FF2764
S1130DA093585F4F3AF09E3F510578F00C949407A6
S1130DB00C94DF075F3FE4F3983ED4F38695779570
S1130DC06795B795F7959F5FC9F7880F911D96951D
S1130DD0879597F90895E1E0660F771F881FBB1F79
S1130DE0621773078407BA0720F0621B730B840B26
S1130DF0BA0BEE1F88F7E09508950E9404076894E3
S1130E00B1110C94DF0708950E94C40788F09F571E
S1130E1098F0B92F9927B751B0F0E1F0660F771F1A
S1130E20881F991F1AF0BA95C9F714C0B13091F010
S1130E300E94DE07B1E008950C94DE07672F782F37
S1130E408827B85F39F0B93FCCF3869577956795D5
S1130E50B395D9F73EF490958095709561957F4F41
S1130E608F4F9F4F0895E89409C097FB3EF49095E7
S1130E708095709561957F4F8F4F9F4F9923A9F06F
S1130E80F92F96E9BB279395F695879577956795FE
S1130E90B795F111F8CFFAF4BB0F11F460FF1BC042
S1130EA06F5F7F4F8F4F9F4F16C0882311F096E9D5
S1130EB011C0772321F09EE8872F762F05C0662383
S1130EC071F096E8862F70E060E02AF09A95660F3C
S1130ED0771F881FDAF7880F9695879597F90895F5
S1130EE0990F0008550FAA0BE0E8FEEF1616170637
S1130EF0E807F907C0F012161306E407F50798F09F
S1130F00621B730B840B950B39F40A2661F0232BB7
S1130F10242B252B21F408950A2609F4A140A69533
S1130F208FEF811D811D089597F99F6780E870E018
S1130F3060E008959FEF80EC089500240A9416164B
S1130F40170618060906089500240A9412161306B3
S1130F50140605060895092E0394000C11F4882341
S1130F6052F0BB0F40F4BF2B11F460FF04C06F5F5D
S1130F707F4F8F4F9F4F089557FD9058440F551F33
S1130F8059F05F3F71F04795880F97FB991F61F007
S1130F909F3F79F087950895121613061406551F7E
S1130FA0F2CF4695F1DF08C0161617061806991FEA
S1130FB0F1CF86957105610508940895E894BB27DF
S1130FC066277727CB0197F908950E94F8070C94B8
S1130FD0AB070E949D0738F00E94A40720F09523D8
S1130FE011F00C9494070C949A0711240C94DF07C5
S1130FF00E94BC0770F3959FC1F3950F50E0551FF5
S1131000629FF001729FBB27F00DB11D639FAA2759
S1131010F00DB11DAA1F649F6627B00DA11D661FA8
S1131020829F2227B00DA11D621F739FB00DA11DC9
S1131030621F839FA00D611D221F749F3327A00D83
S1131040611D231F849F600D211D822F762F6A2F1F
S113105011249F5750409AF0F1F088234AF0EE0F84
S1131060FF1FBB1F661F771F881F91505040A9F7B1
S11310709E3F510580F00C9494070C94DF075F3F6A
S1131080E4F3983ED4F3869577956795B795F795ED
S1131090E7959F5FC1F7FE2B880F911D9695879565
S11310A097F90895A1E21A2EAA1BBB1BFD010DC0DE
S11310B0AA1FBB1FEE1FFF1FA217B307E407F50704
S11310C020F0A21BB30BE40BF50B661F771F881FE0
S11310D0991F1A9469F760957095809590959B0176
S11310E0AC01BD01CF010895EE0FFF1F0590F491EF
S11310F0E02D09940F931F93CF93DF93869F800174
S1131100879F100D969F100D1124C8010E94960808
S1131110EC01009729F0A80160E070E00E94B70993
S1131120CE01DF91CF911F910F9108950F931F93DB
S1131130CF93DF938230910510F482E090E0E09148
S11311404A01F0914B0120E030E0A0E0B0E030979C
S113115019F1408151810281138148175907C8F060
S11311608417950769F4109731F012960C9312972F
S113117013961C9327C000934A0110934B0122C07D
S11311802115310519F04217530718F49A01BD01CE
S1131190EF01DF01F801DBCF21153105F9F0281B40
S11311A0390B2430310580F48A819B8161157105E6
S11311B021F0FB019383828304C090934B018093BD
S11311C04A01FE01329644C0FE01E20FF31F8193EF
S11311D0919322503109398328833AC020914801E0
S11311E030914901232B41F42091020130910301F4
S11311F0309349012093480120910001309101016D
S11312002115310541F42DB73EB7409104015091A9
S11312100501241B350BE0914801F0914901E217C7
S1131220F307A0F42E1B3F0B2817390778F0AC0105
S11312304E5F5F4F2417350748F04E0F5F1F5093E2
S11312404901409348018193919302C0E0E0F0E0AA
S1131250CF01DF91CF911F910F910895CF93DF9329
S1131260009709F481C0FC01329713821282A09185
S11312704A01B0914B01109781F420813181820F92
S1131280931F20914801309149012817390751F5DE
S1131290F0934901E093480167C0ED0120E030E09C
S11312A0CE17DF0740F44A815B819E014115510549
S11312B0F1F0EA01F5CFD383C28340815181840FD9
S11312C0951FC817D90759F488819981840F951FF0
S11312D00296918380838A819B81938382832115E3
S11312E0310529F4F0934B01E0934A013DC0E90133
S11312F0FB83EA8349915991C40FD51FEC17FD076D
S113130061F480819181840F951F0296E90199838C
S11313108883828193819B838A83E0E0F0E0129644
S11313208D919C911397009719F0FD01DC01F7CF83
S11313308D919C9111979D012E5F3F4F820F931FBA
S113134020914801309149012817390769F43097F1
S113135029F410924B0110924A0102C013821282A6
S1131360B0934901A0934801DF91CF910895DC0126
S113137001C06D9341505040E0F7089510E0C3E57B
S1131380D0E004C0FE010E9474082196C535D1073F
S1091390C9F7F894FFCF39
S109139600004C012000E0
S9030000FC
